:020000040800F2
:1000000000800120E12D0008990800089B080008E5
:100010009D0800089F080008A108000800000000D3
:10002000000000000000000000000000A30800081D
:10003000A508000800000000A7080008A90800089B
:10004000312E0008312E0008312E0008312E000814
:10005000312E0008312E0008312E0008312E000804
:10006000312E0008312E0008312E0008312E0008F4
:10007000312E0008312E0008312E0008312E0008E4
:10008000312E0008312E0008312E0008312E0008D4
:10009000312E0008312E0008312E0008312E0008C4
:1000A000312E0008312E0008312E0008312E0008B4
:1000B000312E0008B1080008312E0008312E00084A
:1000C000312E0008312E0008312E0008312E000894
:1000D000312E0008312E0008312E0008312E000884
:1000E000312E0008312E0008312E0008312E000874
:1000F000312E0008312E0008312E0008312E000864
:10010000312E0008312E0008312E0008312E000853
:10011000312E0008312E0008312E0008312E000843
:10012000312E0008312E0008312E0008312E000833
:10013000312E0008312E0008312E0008312E000823
:10014000312E0008312E0008312E0008312E000813
:10015000312E0008312E0008312E0008312E000803
:10016000312E0008312E0008312E0008312E0008F3
:10017000312E0008312E0008312E0008000000004A
:08018000312E0008312E0008A9
:1001900010B5054C237833B9044B13B10448AFF3C1
:1001A00000800123237010BD6000002000000000CB
:1001B0009C37000808B5034B1BB103490348AFF354
:1001C000008008BD00000000640000209C3700088B
:1001D00001F0FF01102A2BDB10F0070F08D010F8F8
:1001E000013B013A8B422DD010F0070F42B3F6D1FC
:1001F000F0B441EA012141EA014122F007047FF015
:1002000000070023F0E80256083C85EA010586EA6B
:10021000010685FA47F5A3FA87F586FA47F6A5FAA7
:1002200087F68EB9EED1F0BC01F0FF0102F00702B3
:1002300032B110F8013B013A83EA010313B1F8D15E
:100240000020704701387047002D06BF354603383F
:10025000073815F0010F07D1013015F4807F02BF78
:10026000013015F4C03F0130F0BC0138704700BFC9
:1002700053B94AB9002908BF00281CBF4FF0FF310D
:100280004FF0FF3000F06AB9ADF1080C6DE904CE13
:1002900000F006F8DDF804E0DDE9022304B0704761
:1002A0002DE9F047089D0C46002B4ED194468C4515
:1002B0008646B2FA82F262D94AB1C2F12003914075
:1002C00020FA03F30CFA02FC194300FA02FE4FEA8B
:1002D0001C471FFA8CF6B1FBF7F44FEA1E4307FBED
:1002E000141143EA014304FB06F199420AD91CEBBD
:1002F000030304F1FF3080F01281994240F20F8134
:10030000023C6344591A1FFA8EF3B1FBF7F007FB66
:10031000101143EA014300FB06F69E420AD91CEB8A
:10032000030300F1FF3180F0FC809E4240F2F9802F
:10033000634402389B1B40EA044000211DB1D340B6
:100340000022C5E90032BDE8F0878B4205D90DB126
:10035000C5E9000100210846F5E7B3FA83F1002959
:1003600046D1A34202D39042C0F0F080861A64EBDB
:1003700003030120002DE6D0C5E90063E3E7002A6E
:1003800040F09080A1EB0C044FEA1C481FFA8CF758
:100390000121B4FBF8F64FEA1E4308FB164443EA7A
:1003A000044307FB06F0984208D91CEB030306F14F
:1003B000FF3402D2984200F2CD8026461C1A1FFA62
:1003C0008EF3B4FBF8F008FB104443EA044300FB4F
:1003D00007F79F4208D91CEB030300F1FF3402D258
:1003E0009F4200F2B0802046DB1B40EA0640A5E7B2
:1003F000C1F120068B4022FA06F71F4320FA06FCC3
:1004000004FA01F343EA0C03F44000FA01F8380C53
:100410004FEA1349B4FBF0FE1FFA87FC00FB1E44B1
:1004200049EA04440EFB0CF9A14502FA01F20AD98B
:100430003C190EF1FF3A80F08480A14540F28180A2
:10044000AEF1020E3C44A4EB09041FFA83F9B4FB9D
:10045000F0F300FB134449EA044403FB0CFCA445FD
:1004600007D93C1903F1FF3067D2A44565D9023B97
:100470003C4443EA0E40A0FB0293A4EB0C049C42D4
:10048000CE469C4651D34ED055B1B8EB0E0364EB2B
:100490000C0404FA06F6CB401E43CC40C5E90064C8
:1004A000002150E7C2F1200320FA03F10CFA02FC0C
:1004B00024FA03F394400C434FEA1C4800FA02FE6E
:1004C0001FFA8CF7B3FBF8F008FB1031230C43EA5A
:1004D000014300FB07F1994208D91CEB030300F12B
:1004E000FF362CD299422AD9023863445B1AA4B24F
:1004F000B3FBF8F108FB113344EA034401FB07F3B3
:10050000A34208D91CEB040401F1FF3613D2A34225
:1005100011D902396444E41A41EA004139E704463A
:10052000F0E6084606E7C845AED2B9EB020E63EB2B
:10053000070C0138A8E73146EDE7034699E7304656
:10054000D4E7D6467FE7634402384DE706462346A4
:1005500008460FE7023E634430E700BF704700BF24
:1005600070B58AB000240594069407940894099401
:10057000294BDA6C42F00402DA64DA6C02F004020D
:100580000192019ADA6C42F08002DA64DA6C02F0CD
:1005900080020292029ADA6C42F00102DA64DA6CAA
:1005A00002F001020392039ADA6C42F00202DA646A
:1005B000DB6C03F002030493049B224620214FF0DE
:1005C000904001F029FD154D22464FF45661284612
:1005D00001F022FD4FF4005305934FF404130693EA
:1005E000079405A9284601F017FC2023059301264E
:1005F00006960794089405A94FF0904001F00CFC72
:100600004FF45663059306960794089405A9284667
:1006100001F002FC0AB070BD001002400008004862
:1006200072B6FEE708B51348134B036003F160434D
:1006300003F5610303F692434360002383600122C4
:10064000C260036143618361C361036200F09CFA8D
:1006500050B90021074800F0FBFA38B900210548DD
:1006600000F024FB20B908BDFFF7DAFFFFF7D8FF41
:10067000FFF7D6FFE8010020005C004008B5044801
:10068000044B036001F0A2FD00B908BDFFF7C8FFED
:10069000D80100200008065008B50B480B4B03603A
:1006A0004FF4E133436000238360C36003610C2295
:1006B00042618361C3610362436202F056FB00B989
:1006C00008BDFFF7ADFF00BF04010020004400405B
:1006D00000B589B000230493059306930793019313
:1006E000029303931548164A026040F28F1242604B
:1006F00083604CF24F33C3604FF400730361802377
:10070000836101F0F1FE90B94FF48053049304A982
:100710000A4801F027FF60B900230193039301A960
:10072000064801F09FFF30B909B05DF804FBFFF700
:1007300077FFFFF775FFFFF773FF00BF8C01002005
:100740000004004008B50B480B4B03604FF4E13345
:10075000436000238360C36003610C2242618361B4
:10076000C3610362436202F000FB00B908BDFFF7FA
:1007700057FF00BF7C0000200048004000B597B044
:100780004422002105A802F089FB00230093019375
:100790000293039304934FF4007001F053FC20BBC9
:1007A000022305934FF480720892102209920F934E
:1007B0001093012211920A2212920722139214938B
:1007C000159305A800F0A4FB88B90F230093032319
:1007D000019300230293039304930421684600F0DD
:1007E000A5FE30B917B05DF804FBFFF719FFFFF75E
:1007F00017FFFFF715FF000030B59BB00023312B2A
:1008000009DC03F168026A44002102F8341C02F892
:10081000681C0133F3E700F09DFAFFF7AFFFFFF725
:100820009FFEFFF7FFFEFFF729FFFFF735FFFFF7FA
:100830004FFFFFF787FF00242346134A32210DA8FC
:1008400002F0F8FA0A2332220DA9104802F0C6F984
:100850000A2332220DA90E4802F0C0F94FF4FA70B3
:1008600000F0A0FA20214FF0904001F0DAFB094D92
:100870004FF48061284601F0D4FB4FF40061284614
:1008800001F0CFFB0134D7E7B8370008040100209E
:100890007C00002000080048FEE7FEE7FEE7FEE7D8
:1008A000FEE770477047704708B500F069FA08BD69
:1008B00008B5024801F0F7FC08BD00BF8C0100201C
:1008C00082B00A4B1A6E42F001021A661A6E02F0EA
:1008D00001020092009A9A6D42F080529A659B6DD7
:1008E00003F080530193019B02B070470010024057
:1008F00010B5AAB004460021259126912791289190
:100900002991882203A802F0C9FA2268174B9A425B
:1009100001D02AB010BD4FF48073039303A801F0F7
:1009200051F800BB124CE36C43F00403E364E36C46
:1009300003F004030193019B0323259312222692C3
:100940000022279228930423299325A9094801F01E
:1009500063FAA36D43F40003A365A36D03F40003DE
:100960000293029BD5E7FFF75BFEDBE7005C0040EC
:10097000001002400008004810B5A4B004468822C8
:10098000002102A802F08AFA2268154B9A4201D08F
:1009900024B010BD4FF4802302934FF080631F9367
:1009A0000223039301220492082205920722069251
:1009B0000422079208934FF48013099302A801F0D0
:1009C00001F850B9074BDA6C42F48022DA64DB6C30
:1009D00003F480230193019BDAE7FFF721FEF1E79F
:1009E000000806500010024002680E4B9A4200D0E8
:1009F000704700B583B003F503339A6D42F00202ED
:100A00009A659B6D03F002030193019B002211463E
:100A10001D2001F0B3FB1D2001F0C0FB03B05DF809
:100A200004FB00BF00040040F0B5ADB00446002157
:100A30002791289129912A912B91882205A802F0CB
:100A40002DFA2368394A934204D0394A93422DD073
:100A50002DB0F0BD0223059305A800F0B3FF10BB35
:100A6000344B9A6D42F400329A659A6D02F400326A
:100A70000092009ADA6C42F00102DA64DB6C03F057
:100A800001030193019B0C23279302232893002346
:100A9000299303232A9307232B9327A94FF09040F0
:100AA00001F0BAF9D4E7FFF7BBFDD9E704230593BA
:100AB00005A800F087FF002835D11E4B9A6D42F43F
:100AC00080229A659A6D02F480220292029ADA6C70
:100AD00042F00402DA64DA6C02F004020392039A30
:100AE000DA6C42F00202DA64DB6C03F00203049376
:100AF000049B102327930227289700262996032575
:100B00002A9507242B9427A90B4801F085F94FF467
:100B100000632793289729962A952B9427A907489D
:100B200001F07AF994E7FFF77BFDC6E70044004047
:100B3000004800400010024000080048000400483F
:100B400010B503460C4A0D490D48006840B10C48E9
:100B500000680344521A934206D8094A136010BD34
:100B60000748084C0460F2E702F0A0F90C23036088
:100B70004FF0FF30F3E700BF0080012000040000C9
:100B80003C0200209003002000285FD010B50446EE
:100B900090F84130002B48D0242384F8413022685B
:100BA000136823F0010313606368226823F0706305
:100BB00013612268936823F400439360E368012B78
:100BC00038D0A368226843F404439360E368022B9F
:100BD00036D02268536823F4006353602268536858
:100BE00043F0007343F4004353602268D36823F456
:100BF0000043D360236962691343A169226843EA11
:100C00000123D360E369216A22680B4313602268E1
:100C1000136843F00103136000206064202384F80C
:100C20004130206384F8420010BD80F84030FFF767
:100C30005FFEB1E7A368226843F400439360C5E711
:100C40002268536843F400635360C7E7012070478C
:100C5000034690F84120D2B2202A23D190F84020B8
:100C6000012A21D0012280F84020242280F841204E
:100C70000068026822F0010202601868026822F42B
:100C800080520260186802681143016019680A689E
:100C900042F001020A60202283F84120002083F8FC
:100CA000400070470220704702207047034690F8CA
:100CB0004120D2B2202A21D190F84020012A1FD011
:100CC000012280F84020242280F841200068026838
:100CD00022F0010202601868026822F4706242EA9F
:100CE0000122026019680A6842F001020A602022AB
:100CF00083F84120002083F84000704702207047AD
:100D000002207047104B1B780BB90120704710B5BB
:100D100004464FF47A70B0FBF3F30C4A1068B0FB52
:100D2000F3F001F03FFA68B90F2C01D901200AE075
:100D3000002221464FF0FF3001F020FA044B1C60E6
:100D4000002000E0012010BD00000020080000206D
:100D50000400002010B5094A136843F4807313603F
:100D6000032001F0F9F90020FFF7CCFF10B10124B6
:100D7000204610BD0446FFF7A3FDF9E7002002401E
:100D8000034B1B78034A11680B441360704700BF84
:100D90000000002040020020014B1868704700BF8F
:100DA0004002002038B50446FFF7F6FF0546B4F1CF
:100DB000FF3F02D0044B1B781C44FFF7EDFF401BA4
:100DC000A042FAD338BD00BF0000002030B583B088
:100DD0000446204B9B6D13F0805F0BD001F02AF985
:100DE000B0F5007F17D0802C1FD82DD0702C2DD0BF
:100DF00000211BE0174DAB6D43F08053AB65AB6D2D
:100E000003F080530193019B01F014F9AB6D23F0C3
:100E10008053AB65E4E7802C03D9A02C03D90221D1
:100E200004E0002102E0012100E003210A4A1368E6
:100E300023F007030B431360136803F007038B428F
:100E400006D1002003B030BD0221EFE70121EDE71C
:100E50000120F7E70010024000200240284A936872
:100E6000D26802F0030213F00C030AD00C2B06D058
:100E7000042B1FD0082B20D00020024610E0012AAE
:100E8000F6D11F4A126812F0080F0CD11C4AD2F892
:100E90009420C2F303221B4951F8222043B10020C1
:100EA0000C2B0DD07047164A1268C2F30312F2E7FA
:100EB0001046F5E714480022F2E714480022EFE755
:100EC0000F4BDB6803F00303022B16D0032B00D17A
:100ED0000E4A0B49CB68C3F302130133C868C0F351
:100EE000062002FB00F0B0FBF3F0CB68C3F34163D4
:100EF00001335B00B0FBF3F0D4E7034AE9E700BF3E
:100F000000100240C83700080024F40000127A00E4
:100F1000002800F0F182F0B583B00446964B9D683E
:100F200005F00C05DE6806F00306036813F0100FE9
:100F30005AD0E5B10C2D18D0A369002B00F0BB806E
:100F40008D4A136843F001031360FFF725FF07463E
:100F5000894B1B6813F0020F40F09A80FFF71CFFCB
:100F6000C01B0228F4D90320D1E2012EE4D1824B28
:100F70001B6813F0020F03D0A369002B00F0BE82A0
:100F8000206A7D4B1B6813F0080F5BD07A4B1B68FF
:100F900003F0F00398425CD8774B1A6842F00802DD
:100FA0001A601A6822F0F002216A0A431A605A682D
:100FB00022F47F42E16942EA01225A60002D60D0AA
:100FC000FFF74CFF6C4B9B68C3F303136B4AD35C76
:100FD00003F01F03D8406A4B18606A4B1868FFF78C
:100FE00091FE002840F09382236813F0010F00F077
:100FF0008180082D75D00C2D71D06368B3F5803FCA
:1010000000F09780B3F5A02F00F099805A4B1A6832
:1010100022F480321A601A6822F480221A6063680F
:10102000002B00F09980FFF7B7FE0746524B1B6874
:1010300013F4003F5ED1FFF7AFFEC01B6428F5D963
:10104000032064E24C4BD3F894301B0903F0F00307
:10105000A0E7FFF7BBFE002840F05282464B1A681B
:1010600042F008021A601A6822F0F002216A0A436C
:101070001A605A6822F47F42E16942EA01225A600A
:101080009EE7206AFFF7A2FE002899D001203EE2E9
:10109000394B1A6842F008021A601A6822F0F0020E
:1010A000216A0A431A605A6822F47F42E16942EADF
:1010B00001225A6098E7304A136823F00103136055
:1010C000FFF76AFE07462C4B1B6813F0020F8BD00C
:1010D000FFF762FEC01B0228F5D9032017E2032E9A
:1010E0008BD1254B1B6813F4003F03D06368002BA2
:1010F00000F00882236813F0020F58D0042D45D069
:101100000C2D41D0E368002B77D01B4A136843F4C1
:1011100080731360FFF740FE0646174B1B6813F4FD
:10112000806F61D1FFF738FE801B0228F5D90320BC
:10113000EDE1114A136843F4803313606FE703F164
:101140008043A3F53C331A6842F480221A601A687F
:1011500042F480321A6062E7FFF71EFE0746064B34
:101160001B6813F4003FC5D0FFF716FEC01B6428B0
:10117000F5D90320CBE100BF001002400038000881
:101180000800002004000020022EBBD1A34B1B68E6
:1011900013F4806F03D0E368002B00F0B5819F4A01
:1011A000536823F0F853216943EA016353602368CD
:1011B00013F0080F4CD063699BB3984AD2F894306F
:1011C00043F00103C2F89430FFF7E6FD0646934B67
:1011D000D3F8943013F0020F3AD1FFF7DDFD801BF6
:1011E0000228F4D9032092E18C4A536823F0F85383
:1011F000216943EA01635360D9E7884A136823F4FD
:1012000080731360FFF7C8FD0646844B1B6813F418
:10121000806FCCD0FFF7C0FD801B0228F5D90320DA
:1012200075E17E4AD2F8943023F00103C2F894307D
:10123000FFF7B2FD0646794BD3F8943013F0020F56
:1012400006D0FFF7A9FD801B0228F4D903205EE138
:10125000236813F0040F7AD0704B9B6D13F0805FFE
:1012600036D16E4B9A6D42F080529A659B6D03F0B9
:1012700080530193019B0126694B1B6813F4807F07
:1012800028D0A368012B39D0052B3FD0634BD3F86E
:10129000902022F00102C3F89020D3F8902022F091
:1012A0000402C3F89020A368002B3DD0FFF774FD23
:1012B00007465A4BD3F8903013F0020F46D1FFF790
:1012C0006BFDC01B41F288339842F2D903201EE126
:1012D0000026D1E7524A136843F480731360FFF786
:1012E0005BFD07464E4B1B6813F4807FC9D1FFF7A7
:1012F00053FDC01B0228F5D9032008E1474AD2F864
:10130000903043F00103C2F89030CCE7434BD3F860
:10131000902042F00402C3F89020D3F8902042F0CD
:101320000102C3F89020BEE7FFF736FD07463B4BAE
:10133000D3F8903013F0020F08D0FFF72DFDC01B3B
:1013400041F288339842F2D90320E0E0EEB9A36A73
:10135000002B00F0DB80022B1DD00C2D00F0DD8077
:101360002E4A136823F080731360FFF715FD0446BF
:101370002A4B1B6813F0007F00F0B780FFF70CFDCD
:10138000001B0228F4D90320C1E0244A936D23F006
:1013900080539365DBE7214BDB6803F00301E26ACE
:1013A00091420FD00C2D00F0B4801C4B1B6813F041
:1013B000806F40F0B080194B1B6813F0805F31D014
:1013C0000120A4E003F07002216B0139B2EB011F90
:1013D000E8D103F4FE42616BB2EB012FE2D103F4DA
:1013E0000031A26B073A18BF01229142DAD103F40F
:1013F000C001E26B5208013AB1EB425FD2D103F077
:10140000C063226C5208013AB3EB426FCAD1034B5E
:101410001B6813F0007F4ED0002078E000100240DF
:10142000007000403E4A136823F080731360FFF79A
:10143000B3FC05463A4B1B6813F0007F06D0FFF75C
:10144000ABFC401B0228F5D9032060E0344AD36886
:1014500034491940E36A206B013843EA0013606B9A
:1014600043EA0023E06B4008013843EA4053206C14
:101470004008013843EA4063A06B000943EA404357
:101480001943D160136843F080731360D36843F04D
:101490008073D360FFF780FC0446214B1B6813F078
:1014A000007F06D1FFF778FC001B0228F5D9032046
:1014B0002DE000202BE01A4B1A6842F080721A606F
:1014C000DA6842F08072DA60FFF766FC0446144B7B
:1014D0001B6813F0007F06D1FFF75EFC031B022B95
:1014E000F5D9032013E0002011E00D4AD1680E4B1E
:1014F0000B40D36000200AE001207047012006E085
:10150000012004E0012002E0012000E0002003B0FF
:10151000F0BD0120FBE70120F9E70120F7E700BF5C
:10152000001002408C809DF9FCFFEEFE002800F0C8
:10153000AF8070B50D460446594B1B6803F0070396
:101540008B420BD2564A136823F007030B431360F8
:10155000136803F007038B4240F09C80236813F06C
:10156000020F0CD0A2684F4B9B6803F0F0039A4225
:1015700005D94C498B6823F0F0031A438A6023682D
:1015800013F0010F39D06368032B09D0022B26D04A
:1015900063BB444A126812F0020F06D1012076E0C4
:1015A000404A126812F0007F76D03E498A6822F0E5
:1015B000030213438B60FFF7EFFB0646394B9B6832
:1015C00003F00C036268B3EB820F16D0FFF7E4FB65
:1015D000801B41F288339842F0D9032057E0314A0A
:1015E000126812F4003FE0D1012050E02D4A126849
:1015F00012F4806FD9D1012049E0236813F0020F63
:101600000CD0A268274B9B6803F0F0039A4205D2E6
:1016100024498B6823F0F0031A438A60204B1B682F
:1016200003F00703AB420AD91D4A136823F00703EE
:101630002B431360136803F00703AB422ED12368DA
:1016400013F0040F06D0174A936823F4E063E168AF
:101650000B439360236813F0080F07D0114A936877
:1016600023F46053216943EAC1039360FFF7F6FB5B
:101670000C4B9B68C3F303130B4AD35C03F01F03AB
:10168000D8400A4B18600A4B1868FFF73BFB70BD47
:10169000012070470120FAE70120F8E70120F6E772
:1016A000002002400010024000380008080000201E
:1016B00004000020014B1868704700BF080000209C
:1016C00008B5FFF7F7FF054B9B68C3F30223044AF5
:1016D000D35C03F01F03D84008BD00BF00100240D8
:1016E000F837000808B5FFF7E5FF054B9B68C3F323
:1016F000C223044AD35C03F01F03D84008BD00BFD7
:1017000000100240F8370008F8B504460D46594B62
:10171000DB6813F0030F17D0564BDB6803F00303AD
:101720000268934201D0012616E0002A00F09F8053
:10173000504BDB68C3F3021301334268934201D07C
:10174000012609E000261BE00368022B58D0032B7A
:101750005DD0012B02D001263046F8BD454A126803
:1017600012F0020F5FD04348C26822F07302616832
:10177000013943EA01131343C3600026002EEBD165
:101780003C4A136823F080631360FFF705FB0746AC
:10179000384B1B6813F0006F05D0FFF7FDFAC31B31
:1017A000022BF5D90326002ED6D1002D3DD131498B
:1017B0000B6923F41F3323F44073A068E268120915
:1017C000520442EA002213430B612A4A136843F091
:1017D00080631360FFF7E0FA0546264B1B6813F0A1
:1017E000006F05D1FFF7D8FA401B0228F5D9032670
:1017F000002EB1D11F4A1369A1690B431361ABE7F6
:101800001C4A126812F4806FADD10126A4E7194A70
:10181000126812F4003FA6D1164A126812F4802F03
:10182000A1D1012698E70126A8E7012D0FD0114884
:10183000026922F0C06222F4FE42A16863695B087B
:10184000013B5B0643EA01231A430261BDE70948F5
:10185000026922F4C00222F4FE42A16823695B08F7
:10186000013B5B0543EA01231A430261ADE7012610
:1018700072E700BF00100240F8B504460D46504B19
:10188000DB6813F0030F17D04D4BDB6803F0030345
:101890000268934201D0012616E0002A00F08D80F4
:1018A000474BDB68C3F3021301334268934201D014
:1018B000012609E000261BE00368022B58D0032B09
:1018C0005DD0012B02D001263046F8BD3C4A12689B
:1018D00012F0020F5FD03A48C26822F073026168CA
:1018E000013943EA01131343C3600026002EEBD1F4
:1018F000334A136823F080531360FFF74DFA07460D
:101900002F4B1B6813F0005F05D0FFF745FAC31B90
:10191000022BF5D90326002ED6D1002D3DD1284922
:101920004B6923F41F3323F44073A068E268120963
:10193000520442EA002213434B61214A136843F0E8
:1019400080531360FFF728FA05461D4B1B6813F000
:10195000005F05D1FFF720FA401B0228F5D90326C6
:10196000002EB1D1164A536961690B435361ABE74D
:10197000134A126812F4806FADD10126A4E7104A11
:10198000126812F4003FA6D10D4A126812F4802F9B
:10199000A1D1012698E70126A8E70948426922F06B
:1019A000C06222F4FE42A16823695B08013B5B062A
:1019B00043EA01231A434261BFE7012684E700BFDF
:1019C000001002402DE9F04182B00446036813F490
:1019D000006F33D0436EB3F5000F1FD00CD823B384
:1019E000B3F5800F05D100212030FFF745FF0646F3
:1019F00020E001273E4623E0B3F5400F0BD100263F
:101A0000604AD2F8883023F44003616E0B43C2F879
:101A10008830002714E001273E4611E0594AD36878
:101A200043F48033D3600026EAE700210430FFF757
:101A30006BFE0646002EE3D0374601E000273E4607
:101A4000236813F4805F30D0A36EB3F1007F1FD002
:101A50000DD81BB3B3F1807F06D1002104F1200023
:101A6000FFF70AFF064605E001273E461DE0B3F1F9
:101A7000407F0AD1C6B9434AD2F8883023F0407378
:101A8000A16E0B43C2F888300FE001273E460CE000
:101A90003C4AD36843F48033D360EBE70021201D38
:101AA000FFF732FE0646E5E73746236813F4003FAA
:101AB00071D0344B9B6D13F0805F4ED1314B9A6DDA
:101AC00042F080529A659B6D03F080530193019B15
:101AD0004FF001082C4A136843F480731360FFF73A
:101AE0005BF90546284B1B6813F4807F05D1FFF78F
:101AF00053F9401B0228F5D90326002E46D1214B6D
:101B0000D3F8903013F4407316D0D4F884209A425E
:101B100012D01C4AD2F8903023F44073D2F89010BF
:101B200041F48031C2F89010D2F8901021F4803145
:101B3000C2F89010C2F8903013F0010F10D1002EAF
:101B400040F027810F4AD2F8903023F44073D4F844
:101B500084100B43C2F8903019E04FF00008B9E749
:101B6000FFF71AF90546074BD3F8903013F0020F30
:101B7000E5D1FFF711F9401B41F288339842F2D9C1
:101B80000326DCE700100240007000403746B8F141
:101B9000000F40F00081236813F0010F08D09D4A28
:101BA000D2F8883023F00303A16B0B43C2F88830CE
:101BB000236813F0020F08D0964AD2F8883023F039
:101BC0000C03E16B0B43C2F88830236813F0040F59
:101BD00008D0904AD2F8883023F03003216C0B43B0
:101BE000C2F88830236813F0080F08D0894AD2F869
:101BF000883023F0C003616C0B43C2F8883023683F
:101C000013F0100F08D0834AD2F8883023F44073C1
:101C1000A16C0B43C2F88830236813F0200F08D062
:101C20007C4AD2F8883023F44063E16C0B43C2F85D
:101C30008830236813F4007F08D0764AD2F88830C1
:101C400023F44023E16D0B43C2F88830236813F47A
:101C5000806F08D06F4AD2F8883023F44013216E89
:101C60000B43C2F88830236813F0400F08D0694A4C
:101C7000D2F8883023F44053216D0B43C2F88830EA
:101C8000236813F0800F08D0624AD2F8883023F41A
:101C90004043616D0B43C2F88830236813F4807FA2
:101CA00008D05C4AD2F8883023F44033A16D0B434E
:101CB000C2F88830236813F4005F0FD0554AD2F879
:101CC000883023F04063E16E0B43C2F88830E36E46
:101CD000B3F1006F65D0B3F1806F67D0236813F460
:101CE000002F0FD04B4AD2F8883023F04063216F89
:101CF0000B43C2F88830236FB3F1006F5ED0B3F1AD
:101D0000806F60D0236813F4802F0FD0414AD2F83F
:101D1000883023F04063616F0B43C2F88830636FF3
:101D2000B3F1006F57D0B3F1806F59D0236813F42B
:101D3000804F0FD0374AD2F8883023F04053A16F3C
:101D40000B43C2F88830A36FB3F1805F50D0B3F17A
:101D5000005F55D0236813F4004F08D02D4AD2F805
:101D6000883023F08043E16F0B43C2F8883023684A
:101D700013F4803F09D0274AD2F8883023F000437B
:101D8000D4F880100B43C2F88830384602B0BDE862
:101D9000F0813746FBE61F4A936D23F0805393652D
:101DA000F9E6D36843F48013D36097E70121201D3F
:101DB000FFF7AAFC002891D007468FE7D36843F4C9
:101DC0008013D3609EE70121201DFFF79DFC0028B2
:101DD00098D0074696E7D36843F48013D360A5E70D
:101DE0000121201DFFF790FC00289FD007469DE7AA
:101DF0000221201DFFF788FC0028ABD00746A9E789
:101E0000022104F12000FFF737FD0028A2D0074689
:101E1000A0E700BF00100240F0B583B000236BE0E4
:101E200085685E000324B44025EA0405CC68B4400C
:101E30002C438460456825EA0C054C68C4F3001403
:101E40009C402C43446069E0C56A25EA0C05C4F354
:101E5000C0049C402C43C46266E0DD08083550F89D
:101E6000254003F0070C4FEA8C0C4FF00F0E0EFAD2
:101E70000CFE24EA0E0E0C6904FA0CF444EA0E047B
:101E800040F8254067E0062400E0002404FA0EF440
:101E90002C430CF1020C5C4D45F82C405B4CA568C2
:101EA000D44325EA02064F6817F4801F01D042EAA6
:101EB0000506564DAE60ED6804EA05064F6817F456
:101EC000001F01D042EA0506504DEE606D6804EA3D
:101ED00005064F6817F4003F01D042EA05064B4D56
:101EE0006E602D682C404E6816F4803F01D042EAA7
:101EF0000504464A146001330A6832FA03F400F01C
:101F000081804FF0010C0CFA03FC1CEA0202F2D0B3
:101F10004C6804F00304013C012C81D94C6804F0A6
:101F2000030EBEF1030F8FD04C6804F00304032CA2
:101F30000CD0C4685D004FF0030C0CFA05FC24EAD9
:101F40000C0C8C68AC4044EA0C04C4604C6804F08F
:101F50000304022C81D004684FEA430E4FF0030CB7
:101F60000CFA0EFC24EA0C0C4C6804F0030404FA8E
:101F70000EF444EA0C0404604C6814F4403FBAD0F8
:101F8000234C256E45F001052566246E04F00104FE
:101F90000194019C4FEA930C0CF102051A4C54F881
:101FA000255003F0030E4FEA8E0E0F2404FA0EF4B0
:101FB00025EA0405B0F1904F3FF467AF154CA042FD
:101FC00016D004F58064A04214D004F58064A042C9
:101FD00012D004F58064A04210D004F58064A042C1
:101FE0000ED004F58064A0423FF44DAF07244DE7C6
:101FF00001244BE7022449E7032447E7042445E78B
:10200000052443E703B0F0BD000001400004014097
:1020100000100240000400480AB1816170478162EB
:102020007047436901EA030221EA030141EA0241E0
:1020300081617047024B186800F4C060704700BFB0
:1020400000700040B0F5007F0FD01F4B1B6803F4F9
:10205000C063B3F5806F34D01B4A136823F4C063A8
:1020600043F48063136000207047174B1B6803F430
:10207000C063B3F5007F20D0134A136823F4C06314
:1020800043F400731360114B1B68322202FB03F30D
:102090000F4AA2FB03239B0C013300E0013B0A4AD9
:1020A000526912F4806F01D0002BF7D1064B5B69A7
:1020B00013F4806F03D10020704700207047032085
:1020C00070470020704700BF0070004008000020EB
:1020D00083DE1B43002807DB00F01F0240090123B9
:1020E0009340024A42F82030704700BF00E100E010
:1020F000002808DB0901C9B200F1604000F5614029
:1021000080F80013704700F00F000901C9B2014BBD
:102110001954704714ED00E000B500F00700C0F15D
:10212000070CBCF1040F28BF4FF0040C031D062B55
:102130000FD9C31E4FF0FF3E0EFA0CF021EA00014A
:1021400099400EFA03FE22EA0E0241EA02005DF80F
:1021500004FB0023EEE70000074AD36823F4E063A2
:102160001B041B0C000200F4E060034343F0BF6358
:1021700043F40033D360704700ED00E010B504462F
:10218000054BD868C0F30220FFF7C6FF0146204682
:10219000FFF7AEFF10BD00BF00ED00E008B5FFF790
:1021A00099FF08BD0138B0F1807F0BD24FF0E023DA
:1021B0005861054AF02182F8231000209861072217
:1021C0001A6170470120704700ED00E0002834D00C
:1021D00038B5044643797BB10223637122681368E2
:1021E00043F00403136023685B6813F0400F07D0CB
:1021F00004236371012038BD0371FEF7BDFBEBE7DB
:10220000FEF7CAFD054623685B6813F0040F0FD084
:10221000FEF7C2FD401B0228F5D923685B6813F066
:10222000040FF0D0042363710223A3600120E2E7CE
:10223000012363710020A060DDE70120704710B426
:10224000036A046A24F001040462846924F0F00C37
:102250004CEA021223F00A030B43826103625DF829
:10226000044B704710B4036A046A24F0100404623B
:10227000846924F4704C4CEA023223F0A00343EA50
:102280000113826103625DF8044B7047836823F099
:1022900070030B4343F00703836070477047704738
:1022A00070477047704770B504460368DE681D6963
:1022B00015F0020F10D016F0020F0DD06FF00202D1
:1022C0001A610123037703689B6913F0030F64D03D
:1022D000FFF7E6FF0023237715F0040F12D016F066
:1022E000040F0FD023686FF004021A6102232377D2
:1022F00023689B6913F4407F55D02046FFF7D0FF39
:102300000023237715F0080F12D016F0080F0FD016
:1023100023686FF008021A61042323772368DB69BE
:1023200013F0030F46D02046FFF7BAFF00232377B0
:1023300015F0100F12D016F0100F0FD023686FF0A9
:1023400010021A61082323772368DB6913F4407FA6
:1023500037D02046FFF7A4FF0023237715F0010FA5
:1023600002D016F0010F33D115F0800F02D016F015
:10237000800F35D115F4807F02D016F0800F37D151
:1023800015F0400F02D016F0400F39D115F0200F94
:1023900002D016F0200F3BD170BDFFF780FF204622
:1023A000FFF77FFF96E72046FFF779FF2046FFF70C
:1023B00078FFA5E72046FFF772FF2046FFF771FF81
:1023C000B4E72046FFF76BFF2046FFF76AFFC3E73D
:1023D00023686FF001021A612046FFF75FFFC3E731
:1023E00023686FF080021A61204600F088F9C1E787
:1023F00023686FF480721A61204600F081F9BFE70C
:1024000023686FF040021A612046FFF74BFFBDE7DB
:1024100023686FF020021A61204600F06FF9BBE7D5
:102420000368304A904212D0B0F1804F0FD0A2F52D
:10243000943290420BD002F58062904207D002F5B0
:102440008062904203D002F59432904203D123F08F
:1024500070034A681343234A90421ED0B0F1804F64
:102460001BD0A2F59432904217D002F580629042C0
:1024700013D002F5806290420FD002F59432904260
:102480000BD002F54062904207D002F58062904284
:1024900003D002F58062904203D123F44073CA68EE
:1024A000134323F080034A69134303608B68C362BC
:1024B0000B6883620B4B98420FD003F50063984280
:1024C0000BD003F54063984207D003F58063984230
:1024D00003D003F58063984201D10B6903630123A4
:1024E00043617047002C014060B310B5044690F87A
:1024F0003D3013B3022384F83D30214651F8040BDC
:10250000FFF78EFF012384F8483084F83E3084F8CA
:102510003F3084F8403084F8413084F8423084F809
:10252000433084F8443084F8453084F8463084F8E9
:10253000473084F83D30002010BD80F83C30FEF775
:1025400053FAD7E70120704710B4846824F47F4C15
:1025500042EA03220A4342EA0C0282605DF8044B1D
:102560007047000090F83C30012B76D010B504463F
:10257000012380F83C30022380F83D3002689068E7
:10258000374B034093600B68602B4CD029D8402B0D
:1025900054D00CD9502B22D1CA6849682068FFF763
:1025A0004EFE50212068FFF771FE002005E0202B31
:1025B0000DD009D9302B0AD00120012384F83D30F9
:1025C000002384F83C3010BD0BB1102B05D1194607
:1025D0002068FFF75BFE0020EFE70120EDE7012018
:1025E000EBE7B3F5805F34D0B3F5005F0CD1CB6877
:1025F0004A6889682068FFF7A7FF2268936843F458
:10260000804393600020D8E7702B24D1CB684A68C0
:1026100089682068FFF798FF2268936843F0770382
:1026200093600020C9E7CA6849682068FFF71AFE6E
:1026300060212068FFF72AFE0020BEE7CA684968CB
:102640002068FFF7FCFD40212068FFF71FFE0020F7
:10265000B3E70020B1E70120AFE70220704700BFD9
:102660008800FEFF90F83C20012A42D030B4034697
:10267000012280F83C20022280F83D200068426858
:1026800084681D4DA84203D005F50065A84203D11A
:1026900022F470024D682A4322F070020D682A432A
:1026A00042601A681448824216D0B2F1804F13D0AB
:1026B000A0F5943082420FD000F5806082420BD0AA
:1026C00000F58060824207D000F59430824203D04A
:1026D00000F54060824204D124F0800489682143DF
:1026E0009160012283F83D20002083F83C0030BC3B
:1026F00070470220704700BF002C014070477047B0
:102700007047026852E8003F23F4907342E80031BA
:102710000029F6D1026802F1080353E8003F23F0D4
:102720000103083242E800310029F3D1036E012B86
:1027300006D02023C0F880300023036683667047EC
:10274000026852E8003F23F0100342E800310029FC
:10275000F6D1EEE710B504460168836802691343B9
:1027600042691343C269134308688E4A02401A4300
:102770000A602268536823F44053E1680B435360B6
:10278000A1692268884B9A4201D0236A1943936851
:1027900023F430630B4393602368844A934210D040
:1027A000834A934221D0834A934237D0824A93424C
:1027B0005CD0824A93426BD07B4A93427DD01022F8
:1027C0003AE002F55842D2F8882002F00302032AC8
:1027D00009D8DFE802F00204870601222CE0042277
:1027E0002AE0082228E0102226E002F5E632D2F89C
:1027F000882002F00C020C2A0ED8DFE802F0070D48
:102800000D0D090D0D0D750D0D0D0B00002213E0C2
:10281000042211E008220FE010220DE002F5E4325C
:10282000D2F8882002F03002202A5FD01AD8002A7D
:102830005ED0102A5ED104225B498B4276D0E069DB
:10284000B0F5004F00F0A380082A00F20E81DFE807
:1028500012F0DD00F300DB000C01F6000C010C01AE
:102860000C01F900302A47D10822E5E702F5E232EF
:10287000D2F8882002F0C002802A3FD004D8FAB3F0
:10288000402A3FD10422D7E7C02A3DD10822D3E70E
:1028900002F5E032D2F8882002F44072B2F5007FEF
:1028A00034D005D8A2B3B2F5807F33D10422C3E778
:1028B000B2F5407F30D10822BEE702F5C832D2F827
:1028C000882002F44062B2F5006F27D005D83AB3F1
:1028D000B2F5806F26D10422AEE7B2F5406F23D166
:1028E0000822A9E70222A7E70222A5E70222A3E71E
:1028F0000022A1E710229FE710229DE702229BE71A
:10290000002299E7102297E7102295E7022293E729
:10291000002291E710228FE710228DE702228BE739
:10292000002289E7102287E7102285E7082A00F2B3
:102930008C80DFE802F0088A2A8A278A8A8A0500C2
:102940004FF4004003E0FEF7BBFE00287FD0626832
:1029500002EB420383427CD8B0EB023F7BD8010EEE
:1029600000025308C0184FF0000341F10001FDF7C9
:102970007FFCA0F54072124B9A426ED82368D86053
:10298000002055E0FEF76AFADFE70E48DFE7082A85
:1029900065D8DFE802F019330564366464641D000D
:1029A000084815E0F369FFEF00800040003801405F
:1029B0000044004000480040004C004000500040EF
:1029C000FFFC0F000024F400FEF77AFE002848D038
:1029D0006268530803EB4003B3FBF2F3A3F1100169
:1029E0004FF6EF7291423ED89AB222F00F02C3F333
:1029F000420313432268D360002019E0FEF772FE01
:102A0000E4E7FEF72BFAE1E71B4802E0FEF758FE89
:102A100068B3636800EB5300B0FBF3F0A0F1100261
:102A20004FF6EF739A4224D8236880B2D860002012
:102A30000023A366E36610BDFEF754FEE8E7FEF749
:102A40000DFAE5E74FF40040E3E70120F0E700204E
:102A5000EEE70120ECE70120EAE70120E8E70120AA
:102A6000E6E70020E4E70120E2E70120E0E70020BC
:102A7000DEE70120DCE700BF0024F400436A13F026
:102A8000080F06D00268536823F40043416B0B43E0
:102A90005360436A13F0010F06D00268536823F4B1
:102AA0000033816A0B435360436A13F0020F06D070
:102AB0000268536823F48033C16A0B435360436A4E
:102AC00013F0040F06D00268536823F48023016BCF
:102AD0000B435360436A13F0100F06D002689368EB
:102AE00023F48053816B0B439360436A13F0200FF0
:102AF00006D00268936823F40053C16B0B439360C4
:102B0000436A13F0400F0AD00268536823F480131D
:102B1000016C0B435360036CB3F5801F0BD0436A09
:102B200013F0800F06D00268536823F40023816CF1
:102B30000B43536070470268536823F4C003416C31
:102B40000B435360EBE72DE9F84305460F46164665
:102B50009946DDF820802B68DC6937EA04040CBF55
:102B600001240024B44232D1B8F1FF3FF3D0FEF784
:102B700013F9A0EB090040452CD8B8F1000F2BD079
:102B80002B681A6812F0040FE5D0DA6912F0080F0A
:102B900011D1DA6912F4006FDDD04FF400621A62CD
:102BA0002846FFF7AEFD2023C5F88430002385F8C2
:102BB000783003200CE008241C622846FFF7A1FDB2
:102BC000C5F88440002385F87830012000E000201B
:102BD000BDE8F8830320FBE70320F9E72DE9F04186
:102BE00082B01E46C36F202B56D104460D46904638
:102BF000002955D00AB901204FE00023C0F88430E5
:102C00002123C367FEF7C8F80746A4F85080A4F84C
:102C10005280A368B3F5805F02D04FF0000818E03F
:102C2000236913B14FF0000813E0A846002510E017
:102C30002023E367032030E038F8023B2268C3F327
:102C400008031385B4F8522092B2013A92B2A4F864
:102C50005220B4F852309BB27BB100963B46002222
:102C600080212046FFF76FFF0028E1D1002DE3D03F
:102C700015F8012B23681A85E4E700963B460022ED
:102C800040212046FFF75FFF10B92023E36704E0EF
:102C90002023E367032000E0022002B0BDE8F081BA
:102CA0000120FAE730B583B004460023C0F8843031
:102CB000FEF772F805462268126812F0080F0FD16D
:102CC00023681B6813F0040F26D12023E367C4F8A0
:102CD000803000202066606684F8780003B030BD44
:102CE0006FF07E430093034600224FF4001120460C
:102CF000FFF729FF0028E3D0226852E8003F23F0C5
:102D0000800342E800310029F6D12023E367002345
:102D100084F878300320E1E76FF07E4300932B4680
:102D200000224FF480012046FFF70DFF0028CCD091
:102D3000226852E8003F23F4907342E800310029F2
:102D4000F6D1226802F1080353E8003F23F00103A3
:102D5000083242E800310029F3D12023C4F8803042
:102D6000002384F878300320B8E768B310B5044630
:102D7000C36F03B32423E3672268136823F00103BE
:102D80001360636AE3B92046FFF7E4FC012811D021
:102D90002268536823F4904353602268936823F0B9
:102DA0002A0393602268136843F0010313602046EE
:102DB000FFF778FF10BD80F87830FDF735FED9E7D2
:102DC0002046FFF75BFEDEE701207047034AD2F89A
:102DD000883043F47003C2F88830704700ED00E09B
:102DE000DFF834D0FFF7F2FF0C480D490D4A0023FD
:102DF00002E0D458C4500433C4188C42F9D30A4AB0
:102E00000A4C002301E013600432A242FBD300F01D
:102E100053F8FDF7F1FCFEE70080012000000020E0
:102E20006000002060380008600000208C03002053
:102E3000FEE700000CB430B5174B0C1E1D689DB0AA
:102E400008DA8B232B604FF0FF301DB0BDE8304017
:102E500002B070474FF40273ADF8143014BF04F1A0
:102E6000FF332346049307934FF6FF7302900690B7
:102E7000ADF81630209A21AB02A92846019300F044
:102E800095F9431CBCBF8B232B60002CDDD0029B2B
:102E900000221A70D9E700BF0C000020024403464C
:102EA000934200D1704703F8011BF9E7014B186802
:102EB000704700BF0C00002070B50D4D0D4C641B19
:102EC000A4100026A64209D10B4D0C4C00F066FC64
:102ED000641BA4100026A64205D170BD55F8043B22
:102EE00098470136EEE755F8043B98470136F2E77C
:102EF000503800085038000850380008543800088E
:102F00007047704738B50546002941D051F8043C58
:102F10000C1F002BB8BFE41800F0E0F81D4A13683E
:102F200033B9636014602846BDE8384000F0DCB86F
:102F3000A34208D9206821188B4201BF19685B6839
:102F400009182160EDE71A465B680BB1A342FAD974
:102F500011685018A0420BD12068014450188342D8
:102F60001160E0D118685B68536008441060DAE7CC
:102F700002D90C232B60D6E7206821188B4204BFAE
:102F800019685B68636004BF091821605460CAE770
:102F900038BD00BF8803002070B50F4E0C46316865
:102FA000054611B900F0A6FB30602146284600F026
:102FB000A1FB431C03D14FF0FF34204670BDC41C5D
:102FC00024F00304A042F8D0211A284600F092FB16
:102FD0000130F2D1EFE700BF840300202DE9F84370
:102FE000CD1C25F0030508350C2D38BF0C25002D10
:102FF000064601DBA94204D90C2333600020BDE85A
:10300000F883DFF8D48000F069F8D8F800301C4667
:1030100044BB29463046FFF7BFFF431C044658D146
:10302000D8F800402746002F43D1002C4BD023680E
:103030003946304604EB030900F05CFB814542D180
:1030400021686D1A29463046FFF7A6FF01303AD0B5
:1030500023682B442360D8F800305A6862BBC8F854
:1030600000700FE02268521B20D40B2A17D9611977
:10307000A342256018BF5960636808BFC8F80010F4
:1030800062514B60304600F02FF804F10B00231D15
:1030900020F00700C21A1CBF1B1AA350AFE76268DA
:1030A000A3420CBFC8F800205A60EBE723466468CF
:1030B000AEE73C467F68B6E71A465B68A342FBD1A1
:1030C00000235360DEE70C233360304600F00CF839
:1030D00094E70560D6E700BF880300200148FFF7AA
:1030E0000FBF00BF800300200148FFF70ABF00BFE9
:1030F000800300202DE9F0478E681F46BE420B6812
:1031000082460C4690462DD8B1F90C2012F4906FEF
:1031100026D06569096905EB4505A3EB010905EBB7
:10312000D5757B1C4B446D109D4238BF1D46530521
:1031300027D52946FFF752FF064660B321694A4664
:1031400000F0E8FAA38923F4906343F08003A3819D
:10315000266165614E44A5EB09052660A5603E46E3
:10316000BE4200D93E4620683246414600F0A8FAE9
:10317000A3689B1BA3602368334423600020BDE841
:10318000F0872A4600F0D4FA06460028E0D12169EB
:103190005046FFF7B7FE0C23CAF80030A38943F06E
:1031A0004003A3814FF0FF30E9E700002DE9F04F25
:1031B00098468B891B069DB007460D46144610D5D0
:1031C0000B6973B94021FFF709FF2860286130B906
:1031D0000C233B604FF0FF301DB0BDE8F08F402363
:1031E0006B610023099320238DF82930CDF80C80E2
:1031F0003023DFF89C818DF82A304FF001092346F7
:103200009A4613F8012B0AB1252AF9D1BAEB040B1F
:103210000BD05B46224629463846FFF76BFF01304C
:1032200000F0A780099A5A4409929AF80030002BBE
:1032300000F09F8000234FF0FF32CDE905230AF113
:10324000010A049307938DF853301A9354460522CC
:1032500014F8011B4E48FCF7BBFF049AD8B9D006FE
:1032600044BF20238DF85330110744BF2B238DF822
:1032700053309AF800302A2B15D0079A5446002074
:103280004FF00A0C214611F8013B303B092B4BD97A
:10329000B0B1079214E0A0EB080309FA03F313435B
:1032A0000493A246D2E7039B191D1B680391002BD0
:1032B000BBBF5B4242F0020207930793B8BF049280
:1032C00023782E2B0AD163782A2B32D1039B1A1D27
:1032D0001B68039243EAE37302340593DFF8C0A04E
:1032E000217803225046FCF773FF38B1049BA0EB12
:1032F0000A004022824013430134049314F8011B56
:1033000024488DF828100622FCF762FF002836D0EA
:10331000214B1BBB039B073323F0070308330393A5
:10332000099B334409936AE70CFB02320C460120E7
:10333000A8E700230134059319464FF00A0C2046F4
:1033400010F8012B303A092A03D9002BC6D0059179
:10335000C4E70CFB012104460123F0E703AB009313
:103360002A460E4B04A93846AFF30080421C06469D
:10337000D6D1AB895B063FF52DAF09982CE703AB9F
:1033800000932A46054B04A9384600F079F8EDE78A
:10339000103800081A38000800000000F530000856
:1033A000163800082DE9F047164698468A680B69DA
:1033B000DDF820909342B8BF1346336091F8432064
:1033C00007460C460AB1013333602368990642BFB1
:1033D000336802333360256815F0060506D104F121
:1033E000190AE36832689B1AAB4226DC94F8433032
:1033F0002268003B18BF012392062BD404F143023C
:1034000041463846C84701301ED02368226903F080
:103410000603042B02BFE5683368ED1AA3680CBFEE
:1034200025EAE57500259342C4BF9B1AED180026D6
:103430001A34B5421AD1002008E001235246414611
:103440003846C847013003D14FF0FF30BDE8F08760
:103450000135C6E7E1185A1C302081F843002244A8
:1034600094F8451082F843100233C7E7012322463F
:1034700041463846C8470130E6D00136D9E700005A
:103480002DE9FF470F7E0C9E782F914680460C4613
:103490009A4601F1430207D8622F0AD8002F00F0A4
:1034A000D280582F00F0B98004F1420684F84270AF
:1034B0003AE0A7F16303152BF6D801A151F823F0E8
:1034C000193500082D350008A9340008A934000872
:1034D000A9340008A93400082D350008A9340008D3
:1034E000A9340008A9340008A93400082D360008C2
:1034F00057350008E7350008A9340008A93400084A
:103500004F360008A934000857350008A9340008D0
:10351000A9340008EF35000833681A1D1B683260B3
:1035200004F1420684F8423001239DE033682068AC
:10353000191D3160060601D51D6803E04506FBD55F
:10354000B3F90050002D03DA2D236D4284F8433087
:1035500059480A2311E021683368080653F8045BD0
:1035600002D4490648BFADB26F2F5348336014BF31
:103570000A230823002184F843106668A660002E01
:10358000A2BF216821F0040121600DB9002E4BD0AB
:103590001646B5FBF3F103FB1157C75D06F8017D35
:1035A0002F46BB420D46F4D9082B0BD12368DF0709
:1035B00008D5236961689942DEBF302306F8013CD3
:1035C00006F1FF36921B2261CDF800A04B4603AAFC
:1035D00021464046FFF7E6FE01304AD14FF0FF306A
:1035E00004B0BDE8F087236843F02003236033482C
:1035F000782784F84570236831681F0651F8045B0A
:1036000002D45F0648BFADB23160D90744BF43F072
:10361000200323601DB11023ACE72748E9E72368A6
:1036200023F020032360F6E71646BDE733682568DC
:103630006169181D30602E061B6801D5196002E013
:103640006806FBD51980002323611646BCE7336862
:103650001A1D32601E68626800213046FCF7B8FD12
:1036600008B1801B606063682361002384F84330E5
:10367000AAE72369324649464046D0470130ADD0DB
:1036800023689B0713D4E068039B9842B8BF184691
:10369000A6E70123324649464046D04701309DD037
:1036A0000135E36803995B1AAB42F2DCEBE70025D6
:1036B00004F11906F5E700BF213800083238000888
:1036C000884210B501EB020402D98442234607D890
:1036D000431EA14208D011F8012B03F8012FF8E78F
:1036E000024401468A4200D110BD13F8014D02F890
:1036F000014DF7E738B5064D0023044608462B6018
:10370000FDF71EFA431C02D12B6803B1236038BDBC
:103710007C0300200A44914200F1FF3300D170473E
:1037200010B511F8014B03F8014F9142F9D110BDCA
:103730002DE9F041804615460C4621B9BDE8F0411F
:103740001146FFF74BBC2AB9FFF7DCFB00242046EB
:10375000BDE8F08100F01AF88542064602D8B5EBC4
:10376000500FF4D829464046FFF738FC074600289A
:10377000ECD0B5422A46214628BF3246FFF7CAFFA1
:1037800021464046FFF7BEFB3C46E0E751F8043CCB
:10379000181F002BBCBF0B58C0187047F8B500BFEE
:1037A000F8BC08BC9E467047F8B500BFF8BC08BC22
:0837B0009E4670470000000076
:1037B800497465726174696F6E20256C640A000033
:1037C800A0860100400D0300801A060000350C0099
:1037D80040420F0080841E0000093D0000127A005C
:1037E8000024F40000366E010048E801006CDC0299
:1037F80000000000010203040000000000000000B7
:103808000102030406070809232D302B2000686CE9
:103818004C006566674546470030313233343536EB
:103828003738394142434445460030313233343524
:10383800363738396162636465660000000000004D
:0838480088C9FF7F01000000A8
:08385000B501000800000000B2
:083858009101000800000000CE
:10386000010000001000000000093D0010000020D1
:103870000000000044020020AC02002014030020DD
:103880000000000000000000000000000000000038
:103890000000000000000000000000000000000028
:1038A0000000000000000000000000000000000018
:1038B0000000000000000000000000000000000008
:0400000508002DE1E1
:00000001FF
